:100000000C942A000C943C000C943C000C943C0092
:100010000C943C000C943C000C943C000C943C0070
:100020000C943C000C943C000C943C000C943C0060
:100030000C943C000C943C000C943C000C943C0050
:100040000C943C000C943C000C943C000C943C0040
:100050000C943C0011241FBECFE5D8E0DEBFCDBF1D
:1000600020E0A0E6B0E001C01D92A036B207E1F7A3
:100070000E943E000C9451000C94000080B58068F2
:1000800080BD549A80B5866080BD579A8CE089B94E
:100090008FEF8ABB789487BB5F9BFECF8CB185BB0B
:0600A000FBCFF894FFCF36
:00000001FF
