S0150000556172745F7472616E736D69742E73726563A2
S11300000C942A000C9434000C9434000C943400A6
S11300100C9434000C9434000C9434000C9434008C
S11300200C9434000C9434000C9434000C9434007C
S11300300C9434000C9434000C9434000C9434006C
S11300400C9434000C9434000C9434000C9434005C
S11300500C94340011241FBECFE5D8E0DEBFCDBF21
S11300600E944E000C9464000C940000883048F404
S113007097B1892B87B9369A349BFECF85B190E02E
S1130080089580E090E008953D9A86B1836086B932
S113009087B18F73806487B9379A08950E944400AA
S11300A080B5806880BD539A80B5866080BD8CE041
S11300B089B98FEF84BB87BB80E00E9436005D9BCB
S10F00C0FECF8CB985BBF8CFF894FFCFBD
S9030000FC
